:020000040800F2
:1000000000000220C1100008F9060008FB060008E5
:10001000FD060008FF0600080107000800000000B8
:1000200000000000000000000000000003070008BE
:10003000050700080000000007070008090700087E
:100040001111000811110008111100081111000808
:1000500011110008111100081111000811110008F8
:1000600011110008111100081111000811110008E8
:1000700011110008111100081111000811110008D8
:1000800011110008111100081111000811110008C8
:1000900011110008111100081111000811110008B8
:1000A00011110008111100081111000811110008A8
:1000B0001111000811110008111100081111000898
:1000C0001111000811110008111100081111000888
:1000D0001111000811110008111100081111000878
:1000E0001111000811110008111100081111000868
:1000F0001111000811110008111100081111000858
:100100001111000811110008111100081111000847
:100110001111000811110008111100081111000837
:100120001111000811110008111100081111000827
:100130001111000811110008111100081111000817
:100140001111000811110008111100081111000807
:1001500011110008111100081111000811110008F7
:1001600011110008111100081111000811110008E7
:100170001111000811110008111100080000000001
:08018000111100081111000823
:100188000348044B834202D0034B03B1184770471E
:100198000C0000200C000020000000000548064963
:1001A8000B1AD90F01EBA301491002D0034B03B17D
:1001B800184770470C0000200C00002000000000C9
:1001C80010B5064C237843B9FFF7DAFF044B13B197
:1001D8000448AFF300800123237010BD0C000020F9
:1001E800000000001411000808B5044B1BB10449B5
:1001F8000448AFF30080BDE80840CFE700000000E6
:10020800100000201411000870B50D4E0D4D761B1E
:10021800B61006D00024013455F8043B9847A6428E
:10022800F9D1094E094D761B00F070FFB61006D0C3
:100238000024013455F8043B9847A642F9D170BD13
:10024800441100084411000848110008441100082E
:10025800F0B4860746D0541E002A3CD0CAB20346E2
:1002680002E014F1FF3436D303F8012B9D07F8D1CF
:10027800032C29D9CDB245EA05250F2C45EA0545B9
:1002880033D9A4F11006360903F1200707EB061746
:1002980003F1100242E9045542E902551032BA420C
:1002A800F8D1721C14F00C0F03EB021204F00F06C5
:1002B80013D0331F23F003030433134442F8045BC1
:1002C8009342FBD106F003042CB1C9B21C4403F8D5
:1002D800011B9C42FBD1F0BC704734461346002CEE
:1002E800F3D1F8E714460346C2E71A462646E0E784
:1002F80053B94AB9002908BF00281CBF4FF0FF3185
:100308004FF0FF3000F06EB9ADF1080C6DE904CE86
:1003180000F006F8DDF804E0DDE9022304B07047D8
:100328002DE9F047089D04468C46002B40F0838059
:100338008A42174647D9B2FA82F242B1C2F1200086
:1003480024FA00F09140974040EA010C94404FEAAB
:100358001748230CBCFBF8F61FFA87FE08FB16C1EA
:1003680043EA014306FB0EF1994209D9FB1806F14D
:10037800FF3080F01981994240F21681023E3B44D9
:100388005B1AA4B2B3FBF8F008FB103344EA034449
:1003980000FB0EFEA64509D93C1900F1FF3380F099
:1003A8000581A64540F2028102383C4440EA0640F5
:1003B800A4EB0E0400261DB1D4400023C5E9004378
:1003C8003146BDE8F08702B9FFDEB2FA82F2002AB0
:1003D80050D1CB1B4FEA174E1FFA87F80126B3FB03
:1003E800FEFC210C0EFB1C3341EA034108FB0CF315
:1003F8008B4207D979180CF1FF3002D28B4200F2F8
:10040800E9808446C91AA3B2B1FBFEF00EFB1011B5
:1004180043EA014408FB00F8A04507D93C1900F15C
:10042800FF3302D2A04500F2D9801846A4EB080495
:1004380040EA0C40BFE78B4209D9002D00F0B1809B
:100448000026C5E9000130463146BDE8F087B3FA19
:1004580083F6002E4AD18B4202D3824200F2B88042
:10046800841A61EB030101208C46002DA8D0C5E950
:10047800004CA5E7C2F1200320FA03F6974001FAE1
:1004880002F04FEA174ED9403043030CB1FBFEF699
:100498001FFA87F80EFB161143EA014306FB08F121
:1004A800994204FA02F409D9FB1806F1FF3C80F0DE
:1004B8008D80994240F28A80023E3B445B1A81B2A9
:1004C800B3FBFEF00EFB103341EA034100FB08F3D7
:1004D8008B4207D9791800F1FF3C73D28B4271D94E
:1004E80002383944CB1A40EA064678E7C6F1200CB0
:1004F80003FA06F422FA0CF31C4320FA0CF701FA6B
:1005080006F34FEA144E21FA0CF11F433B0CB1FBE2
:10051800FEF91FFA84F80EFB191143EA014109FBA1
:1005280008FA8A4502FA06F200FA06F308D96118B1
:1005380009F1FF3048D28A4546D9A9F10209214478
:10054800A1EB0A01BFB2B1FBFEF00EFB101147EAA6
:10055800014700FB08F8B84507D9E71900F1FF3152
:100568002ED2B8452CD90238274440EA0940A7EBD7
:100578000807A0FB02894F45C64649461AD317D03B
:100588005DB1B3EB0E0267EB010707FA0CFCF24012
:100598004CEA0202F740C5E9002700263146BDE8CB
:1005A800F0872E4628460BE70646E9E61846FDE69C
:1005B8004345E5D2B8EB020E69EB04010138DFE7E9
:1005C8000846D2E760468DE78146B9E7664675E793
:1005D80030464AE7ACF1020C394413E702383C4490
:1005E80024E700BF704700BF30B587B000240194EE
:1005F800029403940494059400940F4B1A6B42F0F0
:1006080004021A631B6B03F004030093009B0B4D59
:1006180022464FF40051284600F06EFC4FF4005378
:100628000193012302930394049401A9284600F03E
:100638007DFB07B030BD00BF003802400008024013
:1006480072B6FEE700B595B03022002108A8FFF782
:10065800FFFD0023039304930593069307930193E7
:10066800184A116C41F080511164126C02F08052EA
:100678000192019A0293144A116841F48041116071
:10068800126802F480420292029A0222089201221F
:100698000B9210220C920E9308A800F051F868B93A
:1006A8000F2303930021049105910691079103A854
:1006B80000F08CFA20B915B05DF804FBFFF7C0FF15
:1006C800FFF7BEFF003802400070004008B500F098
:1006D800A5FCFFF7B7FFFFF787FF4FF4005103486A
:1006E80000F010FC642000F0C5FCF6E700080240AA
:1006F800FEE7FEE7FEE7FEE7FEE770477047704754
:1007080008B500F0A5FC08BD82B0002100910B4B94
:100718005A6C42F480425A645A6C02F48042009245
:10072800009A01911A6C42F080521A641B6C03F013
:1007380080530193019B02B0704700BF003802400C
:10074800002800F0D98170B582B00446036813F020
:10075800010F3BD0A64B9B6803F00C03042B2CD055
:10076800A34B9B6803F00C03082B21D06368B3F5F7
:10077800803F4FD0B3F5A02F52D09D4B1A6822F47A
:1007880080321A601A6822F480221A606368002B8B
:1007980050D000F069FC0546954B1B6813F4003FE8
:1007A80014D100F061FC401B6428F5D90320AAE1AC
:1007B8008F4B5B6813F4800FD8D08D4B1B6813F4F4
:1007C800003F03D06368002B00F09881236813F082
:1007D800020F54D0864B9B6813F00C0F3ED0844B0D
:1007E8009B6803F00C03082B33D0E368002B67D019
:1007F800804B01221A6000F037FC05467C4B1B68D1
:1008080013F0020F53D100F02FFC401B0228F5D93A
:10081800032078E1764A136843F480331360B5E720
:10082800734B1A6842F480221A601A6842F48032C4
:100838001A60ABE700F018FC05466D4B1B6813F413
:10084800003FC3D000F010FC401B6428F5D90320FA
:1008580059E1674B5B6813F4800FC6D1644B1B6882
:1008680013F0020F03D0E368012B40F04981604A7E
:10087800136823F0F803216943EAC103136023686E
:1008880013F0080F40D0636963B35B4B01221A6011
:1008980000F0EAFB0546564B5B6F13F0020F33D1AD
:1008A80000F0E2FB401B0228F5D903202BE1504A57
:1008B800136823F0F803216943EAC1031360DEE7F4
:1008C8004C4B00221A6000F0CFFB0546484B1B68D2
:1008D80013F0020FD3D000F0C7FB401B0228F5D954
:1008E800032010E1444B00221A6000F0BDFB0546CE
:1008F8003F4B5B6F13F0020F06D000F0B5FB401BB7
:100908000228F5D90320FEE0236813F0040F78D0FD
:10091800374B1B6C13F0805F0DD100230193344BD0
:100928001A6C42F080521A641B6C03F080530193D6
:10093800019B012500E00025304B1B6813F4807FE4
:1009480021D0A368012B32D0052B36D0284B1A6F43
:1009580022F001021A671A6F22F004021A67A368CC
:10096800002B34D000F080FB0646214B1B6F13F0A0
:10097800020F45D100F078FB801B41F28833984282
:10098800F3D90320BFE01D4A136843F48073136052
:1009980000F06AFB0646194B1B6813F4807FD0D120
:1009A80000F062FB801B0228F5D90320ABE0104A57
:1009B800136F43F001031367D1E70D4B1A6F42F031
:1009C80004021A671A6F42F001021A67C7E700F0BB
:1009D8004BFB0646064B1B6F13F0020F10D000F0BE
:1009E80043FB801B41F288339842F3D903208AE005
:1009F8000038024000004742800E47420070004025
:100A0800E5B9A369002B7DD0464A926802F00C0232
:100A1800082A51D0022B17D0434B00221A6000F04D
:100A280023FB04463F4B1B6813F0007F42D000F0C5
:100A38001BFB001B0228F5D9032064E0394A136C1C
:100A480023F080531364DCE7374B00221A6000F070
:100A58000BFB0546334B1B6813F0007F06D000F0F4
:100A680003FB401B0228F5D903204CE0E369226A06
:100A78001343626A43EA8213A26A5208013A43EABC
:100A88000243E26A43EA0263264A5360264B012284
:100A98001A6000F0E9FA0446224B1B6813F0007F45
:100AA80006D100F0E1FA001B0228F5D903202AE05C
:100AB800002028E0002026E0012B26D0194B5B6897
:100AC80003F48001E269914221D103F03F02216AD7
:100AD8008A421ED1616A47F6C0721A408A421AD108
:100AE80003F44032A16A8A4217D103F07063E26AC4
:100AF800934214D1002006E001207047012002E053
:100B0800012000E0002002B070BD0120FBE70120B9
:100B1800F9E70120F7E70120F5E70120F3E70120D5
:100B2800F1E700BF0038024060004742F8B5244BA7
:100B38009B6803F00C03042B3DD0082B3DD1204BC0
:100B48005A6802F03F025B6813F4800F12D01C4B06
:100B58005968C1F3881100231A48A1FB0001FFF767
:100B6800C7FB174B5B68C3F3014301335B00B0FB62
:100B7800F3F023E0124B5B68C3F388135C01002594
:100B8800E41A65F10005AE0146EA9466A701381B30
:100B980066EB0501CC0044EA5074C500E81844F13E
:100BA80000018B0243EA9053840220461946002331
:100BB800FFF79EFBD5E7034800E00348F8BD00BFF8
:100BC8000038024040787D010024F400002800F03D
:100BD8009B8070B50D4604464F4B1B6803F00F030E
:100BE8008B4208D2CBB24C4A1370136803F00F0340
:100BF8008B4240F08B80236813F0020F17D013F05C
:100C0800040F04D0454A936843F4E0539360236883
:100C180013F0080F04D0414A936843F4604393608B
:100C28003E4A936823F0F003A1680B43936023685E
:100C380013F0010F32D06368012B21D09A1E012ACC
:100C480025D9364A126812F0020F61D033498A68F2
:100C580022F0030213438B6000F006FA06462F4B7E
:100C68009B6803F00C036268B3EB820F16D000F0A8
:100C7800FBF9801B41F288339842F0D9032042E007
:100C8800264A126812F4003FE0D101203BE0234AD3
:100C9800126812F0007FD9D1012034E01E4B1B6886
:100CA80003F00F03AB4207D9EAB21B4B1A701B685B
:100CB80003F00F03AB422DD1236813F0040F06D0C5
:100CC800164A936823F4E053E1680B439360236862
:100CD80013F0080F07D0114A936823F46043216981
:100CE80043EAC1039360FFF721FF0C4B9B68C3F3F2
:100CF80003130B4AD35CD8400A4B18600A4B186898
:100D080000F066F9002070BD012070470120FAE765
:100D18000120F8E70120F6E7003C024000380240D5
:100D28002C110008080000200400002000230F2BCD
:100D380000F2D980F0B583B039E0072200E0002244
:100D4800B2403A430234684E46F82420674A146891
:100D5800EA4324EA05064F6817F4803F01D045EAC4
:100D68000406624C2660646802EA04064F6817F4B9
:100D7800003F01D045EA04065C4C6660A46802EABC
:100D880004064F6817F4801F01D045EA0406574C43
:100D9800A660E46822404E6816F4001F01D045EAB8
:100DA8000402524CE26001330F2B00F29A800122B8
:100DB8009A400C6804EA020532EA0404F3D14C684C
:100DC800661E012E03D9112C01D0122C12D186686F
:100DD8005F000324BC4026EA0406CC68BC403443C8
:100DE8008460466826EA02064C68C4F300129A40FA
:100DF80032434260C7685E000324B440E24327EAF6
:100E080004078C68B4403C43C4604C68022C01D091
:100E1800122C13D1DF08083750F827E003F0070435
:100E28004FEA840C0F2404FA0CF42EEA040E0C6921
:100E380004FA0CF444EA0E0440F82740046814400D
:100E48004A6802F00302B240224302604A6812F084
:100E5800805FA8D000220192254A546C44F4804453
:100E68005464526C02F480420192019A9C08A61CB8
:100E78001D4A52F8267003F0030296000F22B24072
:100E880027EA02071B4A90423FF459AF02F58062F5
:100E980090421AD002F58062904218D002F5806222
:100EA800904216D002F58062904214D002F580621A
:100EB800904212D002F58062904210D002F5806212
:100EC80090423FF43AAF08223AE7012238E702227B
:100ED80036E7032234E7042232E7052230E7062208
:100EE8002EE703B0F0BD704700380140003C0140D8
:100EF80000380240000002400AB1816170470904CD
:100F080081617047436931EA030301D08161704709
:100F18000904816170470000074AD36823F4E0633D
:100F28001B041B0C000200F4E060034343F0BF63A2
:100F380043F40033D360704700ED00E030B4174B42
:100F4800DB68C3F30223C3F10704042C28BF04247D
:100F58001D1D062D18D9033B4FF0FF3505FA04F483
:100F680021EA0401994005FA03F322EA030319432D
:100F780000280BDB0901C9B200F1604000F56140AF
:100F880080F8001330BC70470023E5E700F00F003D
:100F98000901C9B2024B1954F4E700BF00ED00E0A3
:100FA80014ED00E00138B0F1807F0AD2064B58609A
:100FB800064AF02182F823100020986007221A6060
:100FC80070470120704700BF10E000E000ED00E02E
:100FD80010B504460E4B18784FF47A73B3FBF0F350
:100FE8000C4A1068B0FBF3F0FFF7DCFF68B90F2C70
:100FF80001D901200AE0002221464FF0FF30FFF717
:101008009DFF054B1C60002000E0012010BD00BFC3
:1010180000000020080000200400002008B50B4B49
:101028001A6842F400721A601A6842F480621A6000
:101038001A6842F480721A600320FFF76DFF0020DF
:10104800FFF7C6FFFFF760FB002008BD003C024029
:10105800034A1168034B1B780B441360704700BFA9
:101068002800002000000020014B1868704700BFCE
:101078002800002038B50446FFF7F6FF0546B4F10E
:10108800FF3F02D0044B1B781C44FFF7EDFF401BC9
:10109800A042FAD338BD00BF00000020054BD3F8AA
:1010A800882042F47002C3F888204FF000629A60EA
:1010B800704700BF00ED00E0DFF834D0002103E006
:1010C8000C4B5B58435004310B480C4B42189A4266
:1010D800F6D30B4A02E0002342F8043B094B9A423C
:1010E800F9D3FFF7DBFFFFF78FF8FFF7EFFA704749
:1010F800000002204C110008000000200C00002015
:101108000C0000202C000020FEE70000F8B500BF0E
:10111800F8BC08BC9E467047F8B500BFF8BC08BCD0
:041128009E46704728
:10112C00000000000000000001020304060708098B
:08113C00ECF1FF7F010000004F
:04114400F1010008AD
:04114800C9010008D1
:0C114C0001000000100000000024F4006E
:04000005080010C11E
:00000001FF
